{
  "contractName": "filledPrescription",
  "abi": [
    {
      "constant": true,
      "inputs": [],
      "name": "provider",
      "outputs": [
        {
          "name": "",
          "type": "address"
        }
      ],
      "payable": false,
      "stateMutability": "view",
      "type": "function"
    },
    {
      "constant": true,
      "inputs": [],
      "name": "startDate",
      "outputs": [
        {
          "name": "",
          "type": "uint256"
        }
      ],
      "payable": false,
      "stateMutability": "view",
      "type": "function"
    },
    {
      "constant": true,
      "inputs": [],
      "name": "hello",
      "outputs": [
        {
          "name": "",
          "type": "uint256"
        }
      ],
      "payable": false,
      "stateMutability": "view",
      "type": "function"
    },
    {
      "constant": true,
      "inputs": [],
      "name": "signed",
      "outputs": [
        {
          "name": "",
          "type": "bool"
        }
      ],
      "payable": false,
      "stateMutability": "view",
      "type": "function"
    },
    {
      "constant": true,
      "inputs": [],
      "name": "total",
      "outputs": [
        {
          "name": "",
          "type": "uint256"
        }
      ],
      "payable": false,
      "stateMutability": "view",
      "type": "function"
    },
    {
      "constant": true,
      "inputs": [],
      "name": "drugID",
      "outputs": [
        {
          "name": "",
          "type": "uint256"
        }
      ],
      "payable": false,
      "stateMutability": "view",
      "type": "function"
    },
    {
      "constant": true,
      "inputs": [],
      "name": "doctorID",
      "outputs": [
        {
          "name": "",
          "type": "uint256"
        }
      ],
      "payable": false,
      "stateMutability": "view",
      "type": "function"
    },
    {
      "constant": true,
      "inputs": [
        {
          "name": "",
          "type": "uint256"
        }
      ],
      "name": "paymentsRecieved",
      "outputs": [
        {
          "name": "",
          "type": "uint256"
        }
      ],
      "payable": false,
      "stateMutability": "view",
      "type": "function"
    },
    {
      "constant": true,
      "inputs": [],
      "name": "costPerDose",
      "outputs": [
        {
          "name": "",
          "type": "uint256"
        }
      ],
      "payable": false,
      "stateMutability": "view",
      "type": "function"
    },
    {
      "constant": true,
      "inputs": [],
      "name": "dosage",
      "outputs": [
        {
          "name": "",
          "type": "uint256"
        }
      ],
      "payable": false,
      "stateMutability": "view",
      "type": "function"
    },
    {
      "constant": true,
      "inputs": [],
      "name": "patient",
      "outputs": [
        {
          "name": "",
          "type": "address"
        }
      ],
      "payable": false,
      "stateMutability": "view",
      "type": "function"
    },
    {
      "constant": true,
      "inputs": [],
      "name": "endDate",
      "outputs": [
        {
          "name": "",
          "type": "uint256"
        }
      ],
      "payable": false,
      "stateMutability": "view",
      "type": "function"
    },
    {
      "constant": true,
      "inputs": [],
      "name": "frequencyOfDose",
      "outputs": [
        {
          "name": "",
          "type": "uint256"
        }
      ],
      "payable": false,
      "stateMutability": "view",
      "type": "function"
    },
    {
      "constant": true,
      "inputs": [],
      "name": "numberOfDoses",
      "outputs": [
        {
          "name": "",
          "type": "uint256"
        }
      ],
      "payable": false,
      "stateMutability": "view",
      "type": "function"
    },
    {
      "constant": true,
      "inputs": [],
      "name": "test",
      "outputs": [
        {
          "name": "",
          "type": "string"
        }
      ],
      "payable": false,
      "stateMutability": "view",
      "type": "function"
    },
    {
      "inputs": [
        {
          "name": "incDrugID",
          "type": "uint256"
        },
        {
          "name": "incDosage",
          "type": "uint256"
        },
        {
          "name": "incNumberOfDoses",
          "type": "uint256"
        },
        {
          "name": "incFrequencyOfDose",
          "type": "uint256"
        },
        {
          "name": "accCostPerDose",
          "type": "uint256"
        },
        {
          "name": "accStartDate",
          "type": "uint256"
        },
        {
          "name": "accEndDate",
          "type": "uint256"
        },
        {
          "name": "accProvider",
          "type": "address"
        }
      ],
      "payable": false,
      "stateMutability": "nonpayable",
      "type": "constructor"
    },
    {
      "anonymous": false,
      "inputs": [
        {
          "indexed": false,
          "name": "",
          "type": "address"
        }
      ],
      "name": "SenderLogger",
      "type": "event"
    },
    {
      "anonymous": false,
      "inputs": [
        {
          "indexed": false,
          "name": "",
          "type": "uint256"
        }
      ],
      "name": "ValueLogger",
      "type": "event"
    },
    {
      "constant": false,
      "inputs": [],
      "name": "getInfo",
      "outputs": [
        {
          "name": "",
          "type": "uint256[5]"
        }
      ],
      "payable": false,
      "stateMutability": "nonpayable",
      "type": "function"
    },
    {
      "constant": false,
      "inputs": [],
      "name": "pay",
      "outputs": [],
      "payable": true,
      "stateMutability": "payable",
      "type": "function"
    }
  ],
  "bytecode": "0x60806040526201e2406004556040805190810160405280600481526020017f7465737400000000000000000000000000000000000000000000000000000000815250600590805190602001906100569291906101be565b50600160075534801561006857600080fd5b5060405161010080610a03833981018060405281019080805190602001909291908051906020019092919080519060200190929190805190602001909291908051906020019092919080519060200190929190805190602001909291908051906020019092919050505033600660006101000a81548173ffffffffffffffffffffffffffffffffffffffff021916908373ffffffffffffffffffffffffffffffffffffffff16021790555087600081905550866001819055508560028190555084600381905550836008819055508260098190555081600a8190555080600b60006101000a81548173ffffffffffffffffffffffffffffffffffffffff021916908373ffffffffffffffffffffffffffffffffffffffff1602179055506001600660146101000a81548160ff0219169083151502179055506008546002546001540202600c819055505050505050505050610263565b828054600181600116156101000203166002900490600052602060002090601f016020900481019282601f106101ff57805160ff191683800117855561022d565b8280016001018555821561022d579182015b8281111561022c578251825591602001919060010190610211565b5b50905061023a919061023e565b5090565b61026091905b8082111561025c576000816000905550600101610244565b5090565b90565b610791806102726000396000f3006080604052600436106100f1576000357c0100000000000000000000000000000000000000000000000000000000900463ffffffff168063085d4883146100f65780630b97bc861461014d57806319ff1d21146101785780631b9265b8146101a3578063232a6b9d146101ad5780632ddbd13a146101dc5780633427b4321461020757806346f9c5bb14610232578063519c25bb1461025d5780635a9b0b891461029e5780636c7c3842146102f15780638c7f09361461031c578063bd96bd2014610347578063c24a0f8b1461039e578063ece64765146103c9578063eece3e90146103f4578063f8a8fd6d1461041f575b600080fd5b34801561010257600080fd5b5061010b6104af565b604051808273ffffffffffffffffffffffffffffffffffffffff1673ffffffffffffffffffffffffffffffffffffffff16815260200191505060405180910390f35b34801561015957600080fd5b506101626104d5565b6040518082815260200191505060405180910390f35b34801561018457600080fd5b5061018d6104db565b6040518082815260200191505060405180910390f35b6101ab6104e1565b005b3480156101b957600080fd5b506101c26105d9565b604051808215151515815260200191505060405180910390f35b3480156101e857600080fd5b506101f16105ec565b6040518082815260200191505060405180910390f35b34801561021357600080fd5b5061021c6105f2565b6040518082815260200191505060405180910390f35b34801561023e57600080fd5b506102476105f8565b6040518082815260200191505060405180910390f35b34801561026957600080fd5b50610288600480360381019080803590602001909291905050506105fe565b6040518082815260200191505060405180910390f35b3480156102aa57600080fd5b506102b3610621565b6040518082600560200280838360005b838110156102de5780820151818401526020810190506102c3565b5050505090500191505060405180910390f35b3480156102fd57600080fd5b50610306610660565b6040518082815260200191505060405180910390f35b34801561032857600080fd5b50610331610666565b6040518082815260200191505060405180910390f35b34801561035357600080fd5b5061035c61066c565b604051808273ffffffffffffffffffffffffffffffffffffffff1673ffffffffffffffffffffffffffffffffffffffff16815260200191505060405180910390f35b3480156103aa57600080fd5b506103b3610692565b6040518082815260200191505060405180910390f35b3480156103d557600080fd5b506103de610698565b6040518082815260200191505060405180910390f35b34801561040057600080fd5b5061040961069e565b6040518082815260200191505060405180910390f35b34801561042b57600080fd5b506104346106a4565b6040518080602001828103825283818151815260200191508051906020019080838360005b83811015610474578082015181840152602081019050610459565b50505050905090810190601f1680156104a15780820380516001836020036101000a031916815260200191505b509250505060405180910390f35b600b60009054906101000a900473ffffffffffffffffffffffffffffffffffffffff1681565b60095481565b60075481565b3373ffffffffffffffffffffffffffffffffffffffff16600660009054906101000a900473ffffffffffffffffffffffffffffffffffffffff1673ffffffffffffffffffffffffffffffffffffffff1614151561053d57600080fd5b7f53f3cb7e2915e37456381a51d56ac61aa8c1afd56e5c1f055dd1b4946b9a29cc33604051808273ffffffffffffffffffffffffffffffffffffffff1673ffffffffffffffffffffffffffffffffffffffff16815260200191505060405180910390a17f0a51b1385c26fe73e32df22a7afebd5c8b7949dcd7c0c96be29b5e6d2b6de1c5346040518082815260200191505060405180910390a1565b600660149054906101000a900460ff1681565b600c5481565b60005481565b60045481565b600e8181548110151561060d57fe5b906000526020600020016000915090505481565b610629610742565b60a0604051908101604052806000548152602001600154815260200160025481526020016003548152602001600854815250905090565b60085481565b60015481565b600660009054906101000a900473ffffffffffffffffffffffffffffffffffffffff1681565b600a5481565b60035481565b60025481565b60058054600181600116156101000203166002900480601f01602080910402602001604051908101604052809291908181526020018280546001816001161561010002031660029004801561073a5780601f1061070f5761010080835404028352916020019161073a565b820191906000526020600020905b81548152906001019060200180831161071d57829003601f168201915b505050505081565b60a0604051908101604052806005906020820280388339808201915050905050905600a165627a7a723058201d79e0ea264409f07303966f0fba50626e1ddf686ed39401613e8bfa07b9045e0029",
  "source": "pragma solidity ^0.4.18;\n\ncontract filledPrescription {\n\n    //Set by patient/doctor\n    uint public drugID;\n    uint public dosage;\n    uint public numberOfDoses;\n    uint public frequencyOfDose;\n    uint public doctorID = 123456;\n    string public test = \"test\";\n    address public patient;\n\n    bool public signed; //false if no bid acc, true if bid acc and provider signed on\n\n    //agreed upon by pharma and set at time of signature\n    uint256 public hello = 1;\n    uint public costPerDose;\n    uint public startDate;\n    uint public endDate;\n    address public provider;\n    \n    uint public total;\n    uint private remainingTotal;\n    uint[] public paymentsRecieved;\n\n    event SenderLogger(address);\n    event ValueLogger(uint);\n\n    modifier isOwner {\n        require(patient == msg.sender);\n        _;\n    }\n\n    modifier authorizedToViewCheck {\n        require (msg.sender == patient || msg.sender == provider); /* || msg.sender == doctorID*/\n        _;\n    } \n\n    modifier signedContract {\n        require(signed);\n        _;\n    }\n\n    function filledPrescription(uint incDrugID, uint incDosage, uint incNumberOfDoses, uint incFrequencyOfDose, uint accCostPerDose, uint accStartDate, uint accEndDate, address accProvider) public {\n        patient = msg.sender;\n        drugID = incDrugID;\n        dosage = incDosage;\n        numberOfDoses = incNumberOfDoses;\n        frequencyOfDose = incFrequencyOfDose;\n        costPerDose = accCostPerDose;\n        startDate = accStartDate;\n        endDate = accEndDate;\n        provider = accProvider;\n        signed = true;\n        total = dosage*numberOfDoses*costPerDose;\n    }\n\n    function getInfo() public returns ( uint[5] ) {\n        return [drugID, dosage, numberOfDoses, frequencyOfDose, costPerDose];\n    }\n\n    function pay() payable public isOwner {\n        emit SenderLogger(msg.sender);\n        emit ValueLogger(msg.value);\n    }\n    // function recievePayment (uint paymentAmount) public {\n    //     paymentsRecieved.push(paymentAmount);\n    // }\n\n    // function remainingPayment() public returns (uint) {\n    //     remainingTotal = total;\n    //     for (uint i = 0; i < paymentsRecieved.length; i++) {\n    //         remainingTotal -= paymentsRecieved[i];\n    //     }\n    //     return remainingTotal;\n    // }\n\n}\n",
  "sourcePath": "/Users/jmaarse/lighthouse/pharmaBlock_server/contracts/filledPrescription.sol",
  "compiler": {
    "name": "solc",
    "version": "0.4.23+commit.124ca40d.Emscripten.clang"
  },
  "schemaVersion": "2.0.0",
  "updatedAt": "2018-05-10T19:40:59.062Z"
}