{
  "contractName": "Prescription",
  "abi": [
    {
      "constant": true,
      "inputs": [],
      "name": "provider",
      "outputs": [
        {
          "name": "",
          "type": "address"
        }
      ],
      "payable": false,
      "stateMutability": "view",
      "type": "function"
    },
    {
      "constant": true,
      "inputs": [],
      "name": "startDate",
      "outputs": [
        {
          "name": "",
          "type": "uint256"
        }
      ],
      "payable": false,
      "stateMutability": "view",
      "type": "function"
    },
    {
      "constant": true,
      "inputs": [],
      "name": "signed",
      "outputs": [
        {
          "name": "",
          "type": "bool"
        }
      ],
      "payable": false,
      "stateMutability": "view",
      "type": "function"
    },
    {
      "constant": true,
      "inputs": [],
      "name": "total",
      "outputs": [
        {
          "name": "",
          "type": "uint256"
        }
      ],
      "payable": false,
      "stateMutability": "view",
      "type": "function"
    },
    {
      "constant": true,
      "inputs": [],
      "name": "drugID",
      "outputs": [
        {
          "name": "",
          "type": "uint256"
        }
      ],
      "payable": false,
      "stateMutability": "view",
      "type": "function"
    },
    {
      "constant": true,
      "inputs": [],
      "name": "doctorID",
      "outputs": [
        {
          "name": "",
          "type": "uint256"
        }
      ],
      "payable": false,
      "stateMutability": "view",
      "type": "function"
    },
    {
      "constant": true,
      "inputs": [
        {
          "name": "",
          "type": "uint256"
        }
      ],
      "name": "paymentsRecieved",
      "outputs": [
        {
          "name": "",
          "type": "uint256"
        }
      ],
      "payable": false,
      "stateMutability": "view",
      "type": "function"
    },
    {
      "constant": true,
      "inputs": [],
      "name": "costPerDose",
      "outputs": [
        {
          "name": "",
          "type": "uint256"
        }
      ],
      "payable": false,
      "stateMutability": "view",
      "type": "function"
    },
    {
      "constant": true,
      "inputs": [],
      "name": "dosage",
      "outputs": [
        {
          "name": "",
          "type": "uint256"
        }
      ],
      "payable": false,
      "stateMutability": "view",
      "type": "function"
    },
    {
      "constant": true,
      "inputs": [],
      "name": "patient",
      "outputs": [
        {
          "name": "",
          "type": "address"
        }
      ],
      "payable": false,
      "stateMutability": "view",
      "type": "function"
    },
    {
      "constant": true,
      "inputs": [],
      "name": "endDate",
      "outputs": [
        {
          "name": "",
          "type": "uint256"
        }
      ],
      "payable": false,
      "stateMutability": "view",
      "type": "function"
    },
    {
      "constant": true,
      "inputs": [],
      "name": "frequencyOfDose",
      "outputs": [
        {
          "name": "",
          "type": "uint256"
        }
      ],
      "payable": false,
      "stateMutability": "view",
      "type": "function"
    },
    {
      "constant": true,
      "inputs": [],
      "name": "numberOfDoses",
      "outputs": [
        {
          "name": "",
          "type": "uint256"
        }
      ],
      "payable": false,
      "stateMutability": "view",
      "type": "function"
    },
    {
      "inputs": [
        {
          "name": "incDrugID",
          "type": "uint256"
        },
        {
          "name": "incDosage",
          "type": "uint256"
        },
        {
          "name": "incNumberOfDoses",
          "type": "uint256"
        },
        {
          "name": "incFrequencyOfDose",
          "type": "uint256"
        }
      ],
      "payable": false,
      "stateMutability": "nonpayable",
      "type": "constructor"
    },
    {
      "constant": false,
      "inputs": [
        {
          "name": "accCostPerDose",
          "type": "uint256"
        },
        {
          "name": "accStartDate",
          "type": "uint256"
        },
        {
          "name": "accEndDate",
          "type": "uint256"
        },
        {
          "name": "accProvider",
          "type": "address"
        }
      ],
      "name": "providerSignWithTerms",
      "outputs": [],
      "payable": false,
      "stateMutability": "nonpayable",
      "type": "function"
    },
    {
      "constant": false,
      "inputs": [
        {
          "name": "paymentAmount",
          "type": "uint256"
        }
      ],
      "name": "recievePayment",
      "outputs": [],
      "payable": false,
      "stateMutability": "nonpayable",
      "type": "function"
    },
    {
      "constant": false,
      "inputs": [],
      "name": "remainingPayment",
      "outputs": [
        {
          "name": "",
          "type": "uint256"
        }
      ],
      "payable": false,
      "stateMutability": "nonpayable",
      "type": "function"
    }
  ],
  "bytecode": "0x60806040526201e24060045534801561001757600080fd5b506040516080806107778339810180604052810190808051906020019092919080519060200190929190805190602001909291908051906020019092919050505033600560006101000a81548173ffffffffffffffffffffffffffffffffffffffff021916908373ffffffffffffffffffffffffffffffffffffffff160217905550836000819055508260018190555081600281905550806003819055506000600560146101000a81548160ff02191690831515021790555050505050610694806100e36000396000f3006080604052600436106100e6576000357c0100000000000000000000000000000000000000000000000000000000900463ffffffff168063085d4883146100eb5780630b97bc8614610142578063232a6b9d1461016d5780632ddbd13a1461019c5780633427b432146101c757806346f9c5bb146101f2578063519c25bb1461021d5780636c7c38421461025e57806379a6cf69146102895780638c7f0936146102b4578063bd96bd20146102df578063be4fef2914610336578063c24a0f8b14610397578063e2a587f4146103c2578063ece64765146103ef578063eece3e901461041a575b600080fd5b3480156100f757600080fd5b50610100610445565b604051808273ffffffffffffffffffffffffffffffffffffffff1673ffffffffffffffffffffffffffffffffffffffff16815260200191505060405180910390f35b34801561014e57600080fd5b5061015761046b565b6040518082815260200191505060405180910390f35b34801561017957600080fd5b50610182610471565b604051808215151515815260200191505060405180910390f35b3480156101a857600080fd5b506101b1610484565b6040518082815260200191505060405180910390f35b3480156101d357600080fd5b506101dc61048a565b6040518082815260200191505060405180910390f35b3480156101fe57600080fd5b50610207610490565b6040518082815260200191505060405180910390f35b34801561022957600080fd5b5061024860048036038101908080359060200190929190505050610496565b6040518082815260200191505060405180910390f35b34801561026a57600080fd5b506102736104b9565b6040518082815260200191505060405180910390f35b34801561029557600080fd5b5061029e6104bf565b6040518082815260200191505060405180910390f35b3480156102c057600080fd5b506102c961051c565b6040518082815260200191505060405180910390f35b3480156102eb57600080fd5b506102f4610522565b604051808273ffffffffffffffffffffffffffffffffffffffff1673ffffffffffffffffffffffffffffffffffffffff16815260200191505060405180910390f35b34801561034257600080fd5b50610395600480360381019080803590602001909291908035906020019092919080359060200190929190803573ffffffffffffffffffffffffffffffffffffffff169060200190929190505050610548565b005b3480156103a357600080fd5b506103ac610627565b6040518082815260200191505060405180910390f35b3480156103ce57600080fd5b506103ed6004803603810190808035906020019092919050505061062d565b005b3480156103fb57600080fd5b5061040461065c565b6040518082815260200191505060405180910390f35b34801561042657600080fd5b5061042f610662565b6040518082815260200191505060405180910390f35b600960009054906101000a900473ffffffffffffffffffffffffffffffffffffffff1681565b60075481565b600560149054906101000a900460ff1681565b600a5481565b60005481565b60045481565b600c818154811015156104a557fe5b906000526020600020016000915090505481565b60065481565b600080600a54600b81905550600090505b600c8054905081101561051357600c818154811015156104ec57fe5b9060005260206000200154600b6000828254039250508190555080806001019150506104d0565b600b5491505090565b60015481565b600560009054906101000a900473ffffffffffffffffffffffffffffffffffffffff1681565b600560009054906101000a900473ffffffffffffffffffffffffffffffffffffffff1673ffffffffffffffffffffffffffffffffffffffff163373ffffffffffffffffffffffffffffffffffffffff1614156106215783600681905550826007819055508160088190555080600960006101000a81548173ffffffffffffffffffffffffffffffffffffffff021916908373ffffffffffffffffffffffffffffffffffffffff1602179055506001600560146101000a81548160ff0219169083151502179055506006546002546001540202600a819055505b50505050565b60085481565b600c81908060018154018082558091505090600182039060005260206000200160009091929091909150555050565b60035481565b600254815600a165627a7a72305820d7d744557472789fc579ada7e66388a464a3cdc14c7a862538f9d54f1174276c0029",
  "source": "pragma solidity ^0.4.18;\n\ncontract Prescription {\n\n    //Set by patient/doctor\n    uint public drugID;\n    uint public dosage;\n    uint public numberOfDoses;\n    uint public frequencyOfDose;\n    uint public doctorID = 123456;\n    address public patient;\n\n    bool public signed; //false if no bid acc, true if bid acc and provider signed on\n\n    //agreed upon by pharma and set at time of signature\n    uint public costPerDose;\n    uint public startDate;\n    uint public endDate;\n    address public provider;\n    \n    uint public total;\n    uint private remainingTotal;\n    uint[] public paymentsRecieved;\n\n    modifier authorizedToViewCheck {\n        require (msg.sender == patient || msg.sender == provider); /* || msg.sender == doctorID*/\n        _;\n    } \n\n    modifier signedContract {\n        require(signed);\n        _;\n    }\n\n    function Prescription(uint incDrugID, uint incDosage, uint incNumberOfDoses, uint incFrequencyOfDose) public {\n        patient = msg.sender;\n        drugID = incDrugID;\n        dosage = incDosage;\n        numberOfDoses = incNumberOfDoses;\n        frequencyOfDose = incFrequencyOfDose;\n        signed = false;\n    }\n\n    function providerSignWithTerms(uint accCostPerDose, uint accStartDate, uint accEndDate, address accProvider) public {\n        if (msg.sender == patient) {  //make sure that auction is being ended by the creator themselves\n            costPerDose = accCostPerDose;\n            startDate = accStartDate;\n            endDate = accEndDate;\n            provider = accProvider;\n            signed = true;\n            total = dosage*numberOfDoses*costPerDose;\n        }\n    }\n\n    function recievePayment (uint paymentAmount) public {\n        paymentsRecieved.push(paymentAmount);\n    }\n\n    function remainingPayment() public returns (uint) {\n        remainingTotal = total;\n        for (uint i = 0; i < paymentsRecieved.length; i++) {\n            remainingTotal -= paymentsRecieved[i];\n        }\n        return remainingTotal;\n    }\n\n    // A JS FUNCTION ON THE OTHER SIDE THAT CALLS THEM ALL AND COMPILES INTO NICE OBJECT\n}\n",
  "sourcePath": "/Users/jmaarse/lighthouse/pharmaBlock_server/contracts/Prescription.sol",
  "compiler": {
    "name": "solc",
    "version": "0.4.23+commit.124ca40d.Emscripten.clang"
  },
  "schemaVersion": "2.0.0",
  "updatedAt": "2018-05-10T00:25:59.933Z"
}