{
  "contractName": "Prescription",
  "abi": [
    {
      "constant": true,
      "inputs": [],
      "name": "signed",
      "outputs": [
        {
          "name": "",
          "type": "bool"
        }
      ],
      "payable": false,
      "stateMutability": "view",
      "type": "function"
    },
    {
      "constant": true,
      "inputs": [],
      "name": "drugID",
      "outputs": [
        {
          "name": "",
          "type": "uint256"
        }
      ],
      "payable": false,
      "stateMutability": "view",
      "type": "function"
    },
    {
      "constant": true,
      "inputs": [],
      "name": "doctorID",
      "outputs": [
        {
          "name": "",
          "type": "uint256"
        }
      ],
      "payable": false,
      "stateMutability": "view",
      "type": "function"
    },
    {
      "constant": true,
      "inputs": [],
      "name": "dosage",
      "outputs": [
        {
          "name": "",
          "type": "uint256"
        }
      ],
      "payable": false,
      "stateMutability": "view",
      "type": "function"
    },
    {
      "constant": true,
      "inputs": [],
      "name": "patient",
      "outputs": [
        {
          "name": "",
          "type": "address"
        }
      ],
      "payable": false,
      "stateMutability": "view",
      "type": "function"
    },
    {
      "constant": true,
      "inputs": [],
      "name": "frequencyOfDose",
      "outputs": [
        {
          "name": "",
          "type": "uint256"
        }
      ],
      "payable": false,
      "stateMutability": "view",
      "type": "function"
    },
    {
      "constant": true,
      "inputs": [],
      "name": "numberOfDoses",
      "outputs": [
        {
          "name": "",
          "type": "uint256"
        }
      ],
      "payable": false,
      "stateMutability": "view",
      "type": "function"
    },
    {
      "inputs": [
        {
          "name": "incDrugID",
          "type": "uint256"
        },
        {
          "name": "incDosage",
          "type": "uint256"
        },
        {
          "name": "incNumberOfDoses",
          "type": "uint256"
        },
        {
          "name": "incFrequencyOfDose",
          "type": "uint256"
        }
      ],
      "payable": false,
      "stateMutability": "nonpayable",
      "type": "constructor"
    },
    {
      "constant": false,
      "inputs": [],
      "name": "getInfo",
      "outputs": [
        {
          "name": "",
          "type": "uint256[4]"
        }
      ],
      "payable": false,
      "stateMutability": "nonpayable",
      "type": "function"
    }
  ],
  "bytecode": "0x60806040526201e24060045534801561001757600080fd5b506040516080806104038339810180604052810190808051906020019092919080519060200190929190805190602001909291908051906020019092919050505033600560006101000a81548173ffffffffffffffffffffffffffffffffffffffff021916908373ffffffffffffffffffffffffffffffffffffffff160217905550836000819055508260018190555081600281905550806003819055506000600560146101000a81548160ff02191690831515021790555050505050610320806100e36000396000f30060806040526004361061008e576000357c0100000000000000000000000000000000000000000000000000000000900463ffffffff168063232a6b9d146100935780633427b432146100c257806346f9c5bb146100ed5780635a9b0b89146101185780638c7f09361461016b578063bd96bd2014610196578063ece64765146101ed578063eece3e9014610218575b600080fd5b34801561009f57600080fd5b506100a8610243565b604051808215151515815260200191505060405180910390f35b3480156100ce57600080fd5b506100d7610256565b6040518082815260200191505060405180910390f35b3480156100f957600080fd5b5061010261025c565b6040518082815260200191505060405180910390f35b34801561012457600080fd5b5061012d610262565b6040518082600460200280838360005b8381101561015857808201518184015260208101905061013d565b5050505090500191505060405180910390f35b34801561017757600080fd5b50610180610299565b6040518082815260200191505060405180910390f35b3480156101a257600080fd5b506101ab61029f565b604051808273ffffffffffffffffffffffffffffffffffffffff1673ffffffffffffffffffffffffffffffffffffffff16815260200191505060405180910390f35b3480156101f957600080fd5b506102026102c5565b6040518082815260200191505060405180910390f35b34801561022457600080fd5b5061022d6102cb565b6040518082815260200191505060405180910390f35b600560149054906101000a900460ff1681565b60005481565b60045481565b61026a6102d1565b608060405190810160405280600054815260200160015481526020016002548152602001600354815250905090565b60015481565b600560009054906101000a900473ffffffffffffffffffffffffffffffffffffffff1681565b60035481565b60025481565b6080604051908101604052806004906020820280388339808201915050905050905600a165627a7a723058205896cd99b0a92b146bc10fcc56e247fd1d05ecba441d712d3f247450b6047dc20029",
  "source": "pragma solidity ^0.4.18;\n\ncontract Prescription {\n\n    //Set by patient/doctor\n    uint public drugID;\n    uint public dosage;\n    uint public numberOfDoses;\n    uint public frequencyOfDose;\n    uint public doctorID = 123456;\n    address public patient;\n\n    bool public signed; //false if no bid acc, true if bid acc and provider signed on\n\n    function Prescription(uint incDrugID, uint incDosage, uint incNumberOfDoses, uint incFrequencyOfDose) public {\n        patient = msg.sender;\n        drugID = incDrugID;\n        dosage = incDosage;\n        numberOfDoses = incNumberOfDoses;\n        frequencyOfDose = incFrequencyOfDose;\n        signed = false;\n    }\n\n    function getInfo() public returns ( uint[4] ) {\n        return [drugID, dosage, numberOfDoses, frequencyOfDose];\n    }\n}\n",
  "sourcePath": "/Users/jmaarse/lighthouse/pharmaBlock_server/contracts/Prescription.sol",
  "compiler": {
    "name": "solc",
    "version": "0.4.23+commit.124ca40d.Emscripten.clang"
  },
  "schemaVersion": "2.0.0",
  "updatedAt": "2018-05-16T00:50:43.877Z"
}